:020000040000FA
:1000000050210020150400001D0400001F04000002
:10001000210400002304000025040000000000006B
:1000200000000000000000000000000027040000A5
:1000300029040000000000002B0400002D04000033
:100040002F0400002F040000ED0600002F04000024
:100050002F0400002F0400002F0400002F040000D4
:100060002F0400002F0400002F0400002F040000C4
:100070002F0400002F0400002F0400002F040000B4
:100080002F0400002F0400002F0400002F040000A4
:100090002F0400002F0400002F0400002F04000094
:1000A0002F0400002F0400002F0400002F04000084
:1000B0002F0400002F0400000000000000000000DA
:1000C0002F0400002F0400002F0400002F04000064
:1000D0002F0400002F0400002F0400000000000087
:1000E0000000000000000000000000000000000010
:1000F0000000000000000000000000000000000000
:1001000000000000000000000000000000000000EF
:1001100000000000000000000000000000000000DF
:10040000DFF80CD000F02AF800480047250900006A
:10041000502100200648804706480047FEE7FEE7D7
:10042000FEE7FEE7FEE7FEE7FEE7FEE7FEE7FEE7A4
:10043000810400000104000040EA01039B0703D08F
:1004400009E008C9121F08C0042AFAD203E011F813
:10045000013B00F8013B521EF9D27047064C074D94
:1004600006E0E06840F0010394E807009847103484
:10047000AC42F6D3FFF7C8FFA4110000C41100007E
:1004800070B58D480023021D0178101D0124062936
:1004900007D115782D0704D10578C5F30315032D71
:1004A00002D0062904D00FE0854E844D75670EE01A
:1004B00015782D0708D10578C5F30315032D06D04F
:1004C000042D04D0052D02D0062909D010E04FF0EC
:1004D0008055D5F844527B4EC5F34235356002E075
:1004E00015782D0704D10578C5F30315032D02D027
:1004F000062906D011E0744D2E6826F080762E6015
:100500000EE015782D0708D10578C5F30315032DE6
:1005100006D0042D04D0052D02D006290AD011E002
:100520004FF08045C5F80C31C5F81031654D2D1FD1
:100530002B6002E015782D0704D10578C5F303156B
:10054000032D02D0062905D00CE05E4A0321643257
:1005500011600AE015782D0704D10578C5F303155D
:10056000032D02D006290DD06AE0584A05211160FA
:10057000564978310C60554908310B603F21121DF6
:10058000116002E0117809075AD10078C0F3031016
:10059000052855D14E4800684E4908604C48001D5A
:1005A0000068091D08604A4808300068091D086095
:1005B00047480C300068091D086045481030006845
:1005C000091D0860424814300068091D0860404851
:1005D000183000683F49203108603D481C300068F1
:1005E000091D08603A4820300068091D0860384835
:1005F00024300068091D0860354828300068091D4E
:10060000086033482C300068091D086030483030DD
:1006100000683049403108602D4834300068091DB9
:1006200008602B4838300068091D086028483C30B5
:100630000068091D0860264840300068091D0860F0
:1006400021487438016841F470010160BFF34F8F95
:10065000BFF36F8F4FF01021D1F80002002803DBA9
:10066000D1F80402002822DA1B4A14601B480468EF
:10067000002CFCD01524C1F800420568002DFCD0E8
:10068000C1F8044201680029FCD013600168002908
:10069000FCD0BFF34F8F0C48F0380168104A01F4CA
:1006A000E06111430160BFF34F8F00BFFDE70E49CA
:1006B0000C48086070BD0000E00F00F00DF0ADBA0E
:1006C00000C007403C050040FCED00E01056004033
:1006D0000404001020C5004004E5014000E401408E
:1006E0000400FA050090D003040000200348007FB6
:1006F00008B100F0C5BC00F027BC000030010020AC
:1007000002E008C8121F08C1002AFAD170477047DA
:10071000002001E001C1121F002AFBD17047000038
:10072000BFF34F8F05480168054A01F4E0611143AA
:100730000160BFF34F8F00BFFDE700000CED00E04C
:100740000400FA050EB500210091CDE901106A46BA
:1007500044F20100FFF7E4FF0EBD10B58268C368E4
:10076000934203D000F0CAF8002010BD052010BD50
:1007700029B112B1531E134203D0092070470E2035
:1007800070470160838000218160C1600846704726
:1007900010B58268C3689A1A83889A4203D800F019
:1007A000B7F8002010BD042010BD000070B504464D
:1007B000234888B01E460D00426035D0A8882968BD
:1007C00082B22048FFF7D4FF00282ED1A889A9685B
:1007D00082B21C481030FFF7CBFF002825D1202221
:1007E00019496846FFF728FEA0680690207900B1F5
:1007F00001208DF814008DF81C60607900B10E2086
:100800008DF81500E0780290A07803902078019090
:10081000607800900D49684600F0E6F8002804D1A1
:100820009DF81D0018B104E0072008B070BD00F06D
:100830006BF903480121401C00F020F9F5E70000A6
:10084000080000201001002064110000A10E00002B
:1008500010B501460948FFF79BFF04000CD100F0DA
:1008600081FA48B906490548FFF777FF20B9012109
:10087000034800F0EFF90446204610BD2001002097
:10088000080000202DE9F04104460078184F0126A9
:1008900006FA00F03860206800F086FA00216068EF
:1008A00000F079FA1348144D007FA069C5F82405BB
:1008B000607D217D0843C5F86C05D4E90001C5F8C9
:1008C0000C05C5F81415207D01280FD10021A06862
:1008D00000F061FA207B86403E60E06800F064FA38
:1008E000D4E90201C5F80815C5F81005BDE8F08186
:1008F00008050050300100200020004082688388F5
:100900001A4003689A5C0A708168491C81607047CC
:10091000C26883881A4003689954C168491CC16041
:10092000704700000020012188B019A45FF0030285
:1009300001FA00F313F4F01F04D0830003F1A04385
:10094000C3F80027401C2028F2D3144A4FF4F010BB
:1009500010600020121D1060114B0DF1040C0DCB26
:100960008CE80D000F48CDE904010F4806904FF4C4
:100970008070079006230D4A04A901A8FFF716FF0F
:1009800008B1FFF7DFFE204600F070FBFBE7000038
:1009900074657374206C696E650000000805005072
:1009A0005811000000000020100000208D0E0000F3
:1009B0004907090E002806DA00F00F0202F1E022D2
:1009C00082F8141D03E000F1E02282F8001400F028
:1009D0001F02012191404009800000F1E020C0F891
:1009E0008012C0F8001170472DE9F0411E4C0746F7
:1009F0000D46E07E10B10820BDE8F08107B91B4F1D
:100A0000787F20773846FFF73DFF656038692060C2
:100A10002800174E4FF0000516D0397F207F48B1CF
:100A2000C6F81051C6F82051C6F82451C6F84451F2
:100A3000104804E0C6F81C51C6F844510E48C6F8E8
:100A400004030220FFF7B4FF207F08B1082000E074
:100A50000420C6F80005E5752576A5750120E07629
:100A6000A5760020C8E700003001002084110000B6
:100A70000020004010030200800002002DE9F04138
:100A80001F4B1C7F3CB14FF40052B2EB104F02D011
:100A90001020BDE8F081D3F804C00022194D4FF4B6
:100AA00004764FF40177BCF1000F05D014B1C5F8FE
:100AB000086301E0C5F8087393F817E0BEF1000F72
:100AC00010D01A7E52B1BCF1000F05D014B1C5F898
:100AD000046301E0C5F804731120DAE7186101220C
:100AE000197604E0D9750025D8605D761D761CB1B5
:100AF000BDE8F04100F066B8BDE8F04100F014B880
:100B0000300100200020004010B5064C207F002856
:100B100006D1A07E002803D100F088F90120A0763C
:100B200010BD0000300100202DE9F05F234DA87EAC
:100B3000104301D100F07AF9214C686830B14FF4CC
:100B40000170C4F804030020BDE8F09F4FF00009D5
:100B50004FF4A27AC4F844914FF4927BA8465946C8
:100B6000204600F02BF905464FF48471204600F032
:100B700025F907465146204600F020F9064647EA87
:100B800006012943EBD055EA060007D100F026F90B
:100B900098F8171098F819008142E0D888F8179053
:100BA0000DB10320D0E70EB10F20CDE798F81A1051
:100BB000012009B12060C6E76060C4E73001002071
:100BC000002000402DE9F05F204C00264FF4887390
:100BD000C4F810614FF4A275C4F84461C4F8340538
:100BE000C4F838158AB1D4F8000240F02000C4F8E7
:100BF0000002DFF85C80D8F8040048B14FF40470BC
:100C0000C4F804030020BDE8F09F01202060F0E755
:100C10009A46A9464FF4927B5146204600F0D9F8F7
:100C200005464946204600F0D4F807465946204676
:100C300000F0CFF83D430543EED088F8176008B1C7
:100C40000320E0E7002FDDD00F20DCE7002000408C
:100C5000300100202DE9F047204D0246287F38B1B1
:100C60004FF40050B0EB124F02D01020BDE8F087D7
:100C700000F078F808B11120F8E7A9750023AA6000
:100C8000AB82287F28B3164C00264FF4907098460C
:100C9000C4F820314FF4AC73C4F85881C4F844252B
:100CA000C4F848150121A160696881B98246994656
:100CB0005146204600F08DF807464946204600F090
:100CC00088F80743F4D000B10F2685F81680304627
:100CD000CCE7BDE8F04700F005B800003001002087
:100CE000002000402DE9F05F1C4F00254FF48E7A64
:100CF0002E46C7F81C514FF00108C7F8088000F0D5
:100D0000A1F8174CB815616879B123E05F465146E8
:100D1000484600F053F810B9A08AB842F7D1A08A2B
:100D2000B84204D000F08EF801E08346B946A08AAC
:100D3000A17D8842EAD3A08A584501D10F2508E059
:100D40004F465146384600F039F80028F9D0C7F828
:100D50000C80A6752846BDE8F09F000000200040EA
:100D6000300100200248807D002800D0012070471B
:100D70003001002030B541EA4201DDE9034541EA96
:100D80008301800041EA042100F1A04041EA0541CD
:100D9000C0F8001730BD1CB500220B46009211466A
:100DA0000192FFF7E7FF1CBD1CB5002100910B4627
:100DB000012201911146FFF7DDFF1CBD40580028BC
:100DC00000D001207047D0F80403084000D0012073
:100DD00070474058002800D00120704709480A4950
:100DE0000022C37DC1F8082143B1D1F81815437E14
:100DF000C268D154417E491C41767047D1F818052C
:100E00007047000030010020002000401FB5012283
:100E10008DF8080004488DF800200191D0E90012F7
:100E2000684690471FBD00003001002004480021A3
:100E3000C0F82411C0F808110121016070470000BA
:100E400000200040064A0020C2F81C010548838AA1
:100E50008168C95C838A5B1C8382C2F81C15704759
:100E600000200040300100201FB500218DF808004F
:100E700005488DF80010826801928175D0E9001252
:100E8000684690471FBD000030010020017802290C
:100E900001D0012902D14068FFF754BC704700001F
:100EA0007CB50178264D012909D002292CD00029D2
:100EB00029D129462348FFF750FC80B334E040682D
:100EC000017820481038FFF763FC1E4C103C20B11D
:100ED00001218DF80010019007E0A068E168081A70
:100EE000012805D100208DF8000069686846884710
:100EF000A068E168081AA188884204D81048012136
:100F0000401CFFF7BBFD7CBD02218DF80010C068BE
:100F100001900B480121401CFFF7B0FD0CE0FFE7FA
:100F200001210748FFF796FE06488168C06888429D
:100F3000E9D103208DF800006968684688477CBDC8
:100F400008000020200100202DE9FF413E4D4FF414
:100F500000712846FFF737FF01273C4C4FF401781A
:100F6000002600B34FF492712846FFF727FFD0B157
:100F7000C5F82461C5F80883A07E00B96F6002201F
:100F80008DF80000D5F88004C5F880040390E07D5A
:100F90008DF80800E0680190E6752676D4E9001225
:100FA0006846904724E004212846FFF70CFFF8B17B
:100FB0004FF484712846FFF701FFC8B1FFF70EFF19
:100FC000E07D617E884213D1227E3AB1607EE16885
:100FD000E2752269E2602676667607E0A07E00B9B7
:100FE0006F60C5F80883E675607EE168FFF70EFF65
:100FF0004FF48E712846FFF7E1FE58B1A18AA07D1B
:10100000814202D2FFF71EFF04E0C5F81C6108B15F
:10101000FFF72AFF4FF4A2712846FFF7CFFE002802
:101020000FD0C5F84461A07E00B12F60E07D00289C
:1010300007D0E675607EE16804B0BDE8F041FFF7D7
:10104000E5BEBDE8FF810000002000403001002027
:1010500070B50546002405E0285DFFF7F9FB002880
:10106000FAD1641C285D0028F6D170BD10B5FFF7D9
:10107000EFFF0A20FFF7ECFB0028FAD110BD0000BB
:101080007FB5334C4FF492712046FFF7A2FE314DED
:101090000026B0B1C4F8246102208DF80000D4F815
:1010A0008004C4F880040390D4F83C058DF808004F
:1010B000E8680190EE752E76D5E9001268469047F3
:1010C0001FE04FF488712046FFF783FEC8B1C4F8D3
:1010D0001061D4F83C05E97DC0B2814211D12A7E6D
:1010E0005AB1E968D4F8003223F02003C4F8003282
:1010F000EA752A69EA602E7601E0EE75E968FFF785
:1011000085FE4FF4A2712046FFF763FE50B1C4F88C
:101110004461E87D30B1EE75D4F83C05E968C0B2B1
:10112000FFF774FE4FF490712046FFF752FE00283F
:101130000CD0C4F82061A87D002807D0D4F84C0555
:1011400004B0C0B2BDE87040FFF78EBE7FBD0000A6
:1011500000200040300100200806050700000000C4
:1011600000502700060000000800000007000000F3
:101170000500000000000000000000000000D60193
:101180000600000006000000080000000700000044
:101190000500000000000000000000000000D60173
:1011A00006000000C4110000000000201000000034
:1011B00000070000D41100001000002040210000B2
:1011C00010070000000000000090D00300000000A5
:0411D000000000001B
:0400000500000401F2
:00000001FF
